:100000000C942A000C9447000C9447000C94470071
:100010000C9447000C9447000C9447000C94470044
:100020000C9447000C9447000C9447000C94470034
:100030000C9447000C9447000C9447000C94470024
:100040000C9447000C9447000C9447000C94470014
:100050000C94470011241FBECFE5D4E0DEBFCDBF16
:1000600010E0A0E6B0E0ECE5F2E002C005900D92F1
:10007000A837B107D9F710E0A8E7B0E001C01D929A
:10008000AB37B107E1F70E941B010C942C010C94D3
:1000900000008FEF8BBBE3E2F4EF3197F1F700C084
:1000A00000001BBAE3E2F4EF3197F1F700C0000063
:1000B0008BBBE3E2F4EF3197F1F700C000001BBA0D
:1000C000E3E2F4EF3197F1F700C000008BBBE3E20D
:1000D000F4EF3197F1F700C000001BBAE3E2F4EF50
:1000E0003197F1F700C000008BBBE3E2F4EF3197EA
:1000F000F1F700C000001BBAE3E2F4EF3197F1F72B
:1001000000C000008BBBE3E2F4EF3197F1F700C0D1
:1001100000001BBAE3E2F4EF3197F1F700C00000F2
:100120008BBBE3E2F4EF3197F1F700C000001BBA9C
:10013000E3E2F4EF3197F1F700C000008BBBE3E29C
:10014000F4EF3197F1F700C000001BBAE3E2F4EFDF
:100150003197F1F700C000008BBB83E294EF019769
:10016000F1F700C000001BBAE3E2F4EF3197F1F7BA
:1001700000C0000008958FEF8BBB8FEF94E3ACE0DD
:1001800081509040A040E1F700C00000089587E84A
:1001900093E10197F1F700C0000083B38F70809363
:1001A00079008F30A1F787E893E10197F1F700C05C
:1001B000000083B38F70809379008F3041F780E027
:1001C00090E020E730E040E050E075B3FC01EE0F36
:1001D000FF1FE20FF31F6081672365BB63B36F707E
:1001E000609379006F30A1F080937A00709178006D
:1001F000E0E7F0E090E0DC01AA0FBB1FAA0FBB1FF5
:10020000A05ABF4FAF01485F5F4F262F30E006C0B6
:10021000019684309105CCF2CA01D7CF819191919A
:100220002817390709F47C911196E417F507B1F7FF
:100230007093780008958FEF8ABB80EF84BB1BBA60
:100240000E94C70080917800813319F00E94490014
:0C025000F6CF0E944900F3CFF894FFCFD6
:10025C0030313233343536373839414243444546F0
:08026C00EF00DF00BF007F007E
:00000001FF
