:020000020000FC
:1000000000C08FE594E08DBF9EBF2FEF2ABB21BBC0
:10001000207F24BB22272BBB8CEB52D00096E1F330
:1000200061D082BB813351F48CEB4AD00096E1F36E
:1000300059D082BB853311F403D0ECCF07D0EACF7F
:100040002FEF2BBB80EA9FE017D0089508E02FEF39
:100050002BBB8AEF90E010D044274BBB8AEF90E097
:100060000BD00A95003099F7089501970000000021
:1000700000000000D1F708958F939F9386EE93E0E0
:10008000F4DF9F918F910197B9F7089598E0990F48
:100090008A95E9F795BB0000000083B38F7008953F
:1000A00081E0F4DF8295B82F82E0F0DFB80F83E0C3
:1000B000EDDF8295A82F84E0E9DFA80FCD01089538
:1000C000682FEEDF8F939F93862F90E0D5DFE8DFD8
:1000D0007F916F9186239723A0E6B0E07D916C918C
:1000E0008C930895DC018AE2A0FD089580E3A1FDD0
:1000F000089583E2A2FD089584E4A3FD089587E3B3
:10010000A4FD089588E3A5FD089589E3A6FD08955B
:1001100083E4A7FD089584E3B0FD089585E3B1FD70
:10012000089586E3B2FD089582E4B3FD089581E366
:10013000B4FD089582E3B5FD089583E3B6FD089507
:0A01400081E4B7FD089588270895B3
:00000001FF
