:020000020000FC
:1000000005C198E0990F8A95E9F795BB00000000BB
:1000100083B38F70089581E0F4DF8295B82F82E07A
:10002000F0DFB80F83E0EDDF8295A82F84E0E9DFF1
:10003000A80FCD010895682FEEDF8F939F93862F31
:1000400090E043D0E8DF7F916F9186239723A0E66D
:10005000B0E07D916C918C939E9370956095862312
:1000600097230895DC0185E4A0FD089580E3A1FDB8
:10007000089586E4A2FD089584E4A3FD089587E32E
:10008000A4FD089588E3A5FD089589E3A6FD0895DC
:1000900083E4A7FD089584E3B0FD089585E3B1FDF1
:1000A000089586E3B2FD089582E4B3FD089581E3E7
:1000B000B4FD089582E3B5FD089583E3B6FD089588
:1000C00081E4B7FD0895882708958F939F9386EE66
:1000D00093E005D09F918F910197B9F7089501970B
:1000E0000000000000000000D1F708958F9390B346
:1000F0009F70807F890F82BB939A93988F9182958E
:10010000807F890F82BB939A93980895929AEEDF2D
:100110008BE290E0E4DF08959298E8DF87E290E0D8
:10012000DEDF089588E290E0D0DF80E382BB939A1F
:10013000939887E290E0D3DF80E382BB939A939811
:1001400087E290E0CCDF80E282BB939A939887E2CB
:1001500090E0C5DF88E2E0DF8EE0DEDF81E0DCDF1B
:100160008AEF95E0BCDF86E0D7DF0895B8E0AA27E4
:1001700008D0A69580FD80E8A82BBA95C9F78A2FEC
:100180000895D49ADC9882E090E0A9DFD498DC98B6
:100190008AE090E0A4DF8827CC9981E08F9381E307
:1001A00090E09DDF8F910895A82FB8E08827A0FDEB
:1001B00081E004D0A695BA95C9F708958F93D49A93
:1001C000DC9882E090E08BDF8F9180FDDC9A80FFED
:1001D000DC988AE390E083DFD498DC9881E090E0BB
:1001E0007EDF0895D49ADC9880EE91E078DFD49891
:1001F000DC9884E690E073DF89B38F938CE791E01D
:100200006EDF9F91882794FF81E008958FE594E049
:100210008DBF9EBF20EF24BB2FEF21BB2ABB41E047
:1002200081DF413019F07FD034D001C051D088EC4B
:1002300090E04BDFF4CF08958F93382F97FF8DE236
:1002400065DF309597FD8BE261DF5527222710E3AC
:100250003F77343620F081E359DF5FEF34563A3090
:1002600018F023953A50FBCF203021F05527822FEC
:10027000810F4CDF5F3F11F480E348DF310F832FA4
:1002800045DF82EB43DF83E441DF88EC90E01DDF54
:100290000895903821F4803011F42DD008959F3FB7
:1002A00019F48F3F09F406C0903011F4803011F03A
:1002B000C3DF089580E32ADF089589E190E0BBDE83
:1002C000D1DE8030D1F380538A3008F08750089512
:1002D0005527F3DF582F5295F0DF582B4427EDDFD9
:1002E000482F4295EADF482B952F842FD2DF84EFE9
:1002F00091E0EBDE089581E00FDF8AEF95E0EFDE1D
:100300008EE404DF8FE402DF80E200DF84E4FEDEBF
:1003100085E6FCDE86E7FADE89E6F8DE83E6F6DED1
:1003200085E6F4DE08955EDF80FFC1F08CEC3CDFF3
:1003300084E43ADF26DF80FFFDCF54DF80FF0EC06C
:100340008CEC32DF8EEB30DF11DF8F930FDF982FD5
:100350008F9190FF01C08A958BBB089580E49FE147
:020360000895FE
:00000001FF
