:020000020000FC
:1000000005C198E0990F8A95E9F795BB00000000BB
:1000100083B38F70089581E0F4DF8295B82F82E07A
:10002000F0DFB80F83E0EDDF8295A82F84E0E9DFF1
:10003000A80FCD010895682FEEDF8F939F93862F31
:1000400090E043D0E8DF7F916F9186239723A0E66D
:10005000B0E07D916C918C939E9370956095862312
:1000600097230895DC0185E4A0FD089580E3A1FDB8
:10007000089586E4A2FD089584E4A3FD089587E32E
:10008000A4FD089588E3A5FD089589E3A6FD0895DC
:1000900083E4A7FD089584E3B0FD089585E3B1FDF1
:1000A000089586E3B2FD089582E4B3FD089581E3E7
:1000B000B4FD089582E3B5FD089583E3B6FD089588
:1000C00081E4B7FD0895882708958F939F9386EE66
:1000D00093E005D09F918F910197B9F7089501970B
:1000E0000000000000000000D1F708958F9390B346
:1000F0009F70807F890F82BB939A93988F9182958E
:10010000807F890F82BB939A93980895929AEEDF2D
:100110008BE290E0E4DF08959298E8DF87E290E0D8
:10012000DEDF089588E290E0D0DF80E382BB939A1F
:10013000939887E290E0D3DF80E382BB939A939811
:1001400087E290E0CCDF80E282BB939A939887E2CB
:1001500090E0C5DF88E2E0DF8EE0DEDF81E0DCDF1B
:100160008AEF95E0BCDF86E0D7DF0895B8E0AA27E4
:1001700008D0A69580FD80E8A82BBA95C9F78A2FEC
:100180000895D49ADC9882E090E0A9DFD498DC98B6
:100190008AE090E0A4DF8827CC9981E08F9381E307
:1001A00090E09DDF8F910895A82FB8E08827A0FDEB
:1001B00081E004D0A695BA95C9F708958F93D49A93
:1001C000DC9882E090E08BDF8F9180FDDC9A80FFED
:1001D000DC988AE390E083DFD498DC9881E090E0BB
:1001E0007EDF0895D49ADC9880EE91E078DFD49891
:1001F000DC9884E690E073DF89B38F938CE791E01D
:100200006EDF9F91882794FF81E008958FE594E049
:100210008DBF9EBF20EF24BB2F6021BB2ABB4DE0CA
:1002200081DF413011F052D001C035D084E690E03A
:100230004CDFF5CF0895803029F18F3F19F1382F29
:1002400087FF01C003C08BE261DF03C08DE25EDF88
:100250003095222710E33F77343618F081E356DFDC
:1002600034563A3018F023953A50FBCF203019F02D
:10027000822F810F4BDF310F49DF82EB47DF83E4B1
:1002800045DF02C080E342DF089585EAD4DEEADE7E
:100290008030D9F30895F9DF582F5295F6DF582BA7
:1002A000F4DF482F4295F1DF482B952F842FC3DFD1
:1002B0000895E0E0F0E081E02FDF849127DF21E086
:1002C000849124DF220F27FFFBCF08958BDF80303E
:0E02D00081F38CEC69DF84E467DFADDF089515
:00000001FF
